:020000040000FA
:040000004FEF2EF0A0
:10080000005375736372696265746520616C20635F
:10081000616E616C203A44212000222A2B2C3A3B45
:100820003C3D3E3F5B5D7C7F00686F6C612E747861
:0308300074000051
:1008340045C0D9FF46C0DAFFDE6ADD6A47C001F071
:1008440048C002F0AEEC27F001C080F002C081F095
:10085400000181BF32EF04F030EF04F035EF04F013
:100864000B0EE6EF09F0D8908035D96E8135DA6E3B
:10087400D40ED926000EDA22DECF98F0DDCF99F01F
:1008840098519911D8A449EF04F04BEF04F04EEFBE
:1008940004F00C0EE6EF09F045C0D9FF46C0DAFFBC
:1008A40098C0DEFF99C0DDFF98C0D9FF99C0DAFF78
:1008B400DF50D8B460EF04F062EF04F089EF04F085
:1008C40020EE01F09851D9269951DA22DF50DAEC62
:1008D4002EF000018C6F8CB172EF04F074EF04F011
:1008E40089EF04F04950D8B47AEF04F07CEF04F0B7
:1008F40086EF04F08CA581EF04F083EF04F086EF1B
:1009040004F00A0EE6EF09F0000EE6EF09F098C0D5
:10091400D9FF99C0DAFFDF6A20EE01F09851D92699
:100924009951DA2280C0DFFF20EE01F09851D926D8
:100934009951DA22DF5083EC1FF000018C6F8CA1F7
:10094400A6EF04F0A8EF04F0ABEF04F0030EE6EF1B
:1009540009F04950D8B4B1EF04F0B3EF04F0BCEFA0
:1009640004F08CA5B8EF04F0BAEF04F0BCEF04F087
:1009740083EF04F0000E916F000E926F000E936FE0
:10098400000E946F98C03BF099C03CF0000E3D6E91
:10099400000E3E6E000E3F6E000E406E44EC28F0DA
:1009A4000001976F9705D8B4DAEF04F0DCEF04F098
:1009B400DEEF04F0ADEF05F0000E966F000E956FBC
:1009C400965109E1040E955DD8A0EBEF04F0EDEF2C
:1009D40004F0EFEF04F04AEF05F095C04AF096C03A
:1009E4004BF04A3A4B3AF00E4B164A500F0B4B124F
:1009F400F00E4A164A5098254C6E4B5099214D6E74
:100A0400EC0E4C247A6F010E4D207B6F20EE04F027
:100A14007A51D9267B51DA22DF50D8A414EF05F09D
:100A240016EF05F020EF05F0000E706F000E716FE9
:100A3400000E726F000E736F2EEF05F020EE08F0BB
:100A44007A51D9267B51DA22DECF70F0DECF71F0F5
:100A5400DECF72F0DECF73F0600E4A6E000E4B6E86
:100A6400D8909535D96E9635DA6ED890D936DA366F
:100A74004A50D9264B50DA2270C0DEFF71C0DEFF27
:100A840072C0DEFF73C0DEFF954B962BE2EF04F0DD
:100A9400000E966F000E956F95519611D8B455EFD0
:100AA40005F057EF05F05AEF05F09507D8A0960723
:100AB400600E4A6E000E4B6ED8909535D96E963501
:100AC400DA6ED890D936DA364A50D9264B50DA2223
:100AD400DECF91F0DECF92F0DECF93F0DECF94F054
:100AE4009151921193119411D8A47BEF05F07DEFED
:100AF40005F083EF05F0000E756F020E746F96EF2C
:100B040005F098C03BF099C03CF091C03DF092C014
:100B14003EF093C03FF094C040F044EC28F04A6E9D
:100B24004A500001746F756B74C097F09751D8B434
:100B34009EEF05F0A0EF05F0ADEF05F0954B962B79
:100B4400965109E1040E955DD8A0ABEF05F0ADEF29
:100B540005F05AEF05F0030E9719D8A4B4EF05F089
:100B6400B6EF05F0B9EF05F0010EE6EF09F0975185
:100B7400D8B4BFEF05F0C1EF05F0C4EF05F00D0EDA
:100B8400E6EF09F020EE39F09851D9269951DA228E
:100B9400DE5009E1020EDE18D8B4D3EF05F0D5EF2C
:100BA40005F0D7EF05F0C1EF05F020EE44F09851C1
:100BB400D9269951DA22DECF4AF0DDCF4BF04AC074
:100BC4008DF04BC08EF08F6B906B8D518E118F1109
:100BD4009011D8A4F0EF05F0F2EF05F000EF06F065
:100BE40020EE52F09851D9269951DA22DECF8DF0B9
:100BF400DECF8EF0DECF8FF0DECF90F020EE16F059
:100C04009851D9269951DA228DC0DEFF8EC0DEFFBD
:100C14008FC0DEFF90C0DEFF20EE3EF09851D92653
:100C24009951DA2210EE03F09851E1269951E2220B
:100C3400DFCFE7FF20EE03F09851D9269951DA224D
:100C4400DE04D8B428EF06F02AEF06F03BEF06F0F6
:100C540020EE03F09851D9269951DA22020EDE18BB
:100C6400D8B437EF06F039EF06F03BEF06F0C1EFEA
:100C740005F08DC001F08EC002F08FC003F090C06B
:100C840004F020EE03F09851D9269951DA22DF506E
:100C94004A6E4A50056E066A076A086A6BEC2DF0C4
:100CA40001C08DF002C08EF003C08FF004C090F03C
:100CB400000120EE3BF09851D9269951DA2210EE2A
:100CC40002F09851E1269951E222DFCFE7FF20EEAE
:100CD40002F09851D9269951DA22DF50D8B475EF31
:100CE40006F077EF06F0C1EF05F020EE02F0985120
:100CF400D9269951DA22DF504A6EFF0E4A244B6EF0
:100D04004C6AFF0E4C2220EE02F09851D9269951DC
:100D1400DA22DF504D6E4D504B16000E4C164B50E0
:100D24004C10D8B498EF06F09AEF06F09CEF06F05A
:100D3400C1EF05F020EE3FF09851D9269951DA22FF
:100D440010EE08F09851E1269951E222DECFE6FF39
:100D5400DDCFE5FF20EE08F09851D9269951DA222B
:100D6400DECF4AF0DDCF4BF00F0E4A16000E4B16C5
:100D74004A504B10D8B4C1EF06F0C3EF06F0C5EFEC
:100D840006F0C1EF05F020EE41F09851D9269951B3
:100D9400DA22DECF4AF0DDCF4BF04AC084F04BC0FC
:100DA40085F0866B876B8451851186118711D8A4D1
:100DB400DEEF06F0E0EF06F0EEEF06F020EE4EF088
:100DC4009851D9269951DA22DECF84F0DECF85F00E
:100DD400DECF86F0DECF87F020EE3CF09851D926A6
:100DE4009951DA22DECF82F0DDCF83F08251831174
:100DF400D8A4FFEF06F001EF07F003EF07F0C1EF0F
:100E040005F020EE08F09851D9269951DA22DECF68
:100E14004AF0DDCF4BF0040E4C6ED8904B324A3280
:100E24004C2E0FEF07F082514A244D6E83514B2014
:100E34004E6E4F6AD8B04F2A506A8D514D247C6F44
:100E44008E514E207D6F8F514F207E6F90515020D8
:100E54007F6F7C51845D7D5185597E5186597F51C8
:100E64008759D8B038EF07F03AEF07F03CEF07F0B6
:100E7400C1EF05F07C51845D016E7D518559026E90
:100E84007E518659036E7F518759046E20EE02F01D
:100E94009851D9269951DA22DF504A6E4A50056E8C
:100EA400066A076A086A00EC2CF001C088F002C0E8
:100EB40089F003C08AF004C08BF0000188518911C5
:100EC4008A118B11D8A469EF07F06BEF07F06DEF6F
:100ED40007F0C1EF05F0010E976F8B518A110BE1FA
:100EE400F60E885D0F0E8959D8A07BEF07F07DEFD1
:100EF40007F07FEF07F0020E976F8B518A110BE119
:100F0400F60E885DFF0E8959D8A08BEF07F08DEFA0
:100F140007F08FEF07F0030E976F020E88254A6ED5
:100F2400000E89214B6E000E8A214C6E000E8B211F
:100F34004D6E20EE12F09851D9269951DA224AC00A
:100F4400DEFF4BC0DEFF4CC0DEFF4DC0DEFF20EEF7
:100F54001AF09851D9269951DA2291C0DEFF92C035
:100F6400DEFF93C0DEFF94C0DEFF825191254A6EFE
:100F7400835192214B6E000E93214C6E000E9421EE
:100F84004D6E20EE1EF09851D9269951DA224AC0AE
:100F9400DEFF4BC0DEFF4CC0DEFF4DC0DEFF7C51E8
:100FA40091254A6E7D5192214B6E7E5193214C6E58
:100FB4007F5194214D6E20EE26F09851D9269951F7
:100FC400DA224AC0DEFF4BC0DEFF4CC0DEFF4DC05C
:100FD400DEFF030E9719D8A4F2EF07F0F4EF07F041
:100FE4003AEF08F020EE08F09851D9269951DA2208
:100FF400DE50DE10D8B401EF08F003EF08F005EF7F
:1010040008F0C1EF05F020EE5AF09851D926995115
:10101400DA2210EE22F09851E1269951E222DECF35
:10102400E6FFDECFE6FFDECFE6FFDECFE6FF20EE13
:1010340012F09851D9269951DA22DECF4AF0DECF48
:101044004BF0DECF4CF0DECF4DF0020ED8904A3696
:101054004B364C364D36E82E28EF08F04AC076F071
:101064004BC077F04CC078F04DC079F0D9EF08F060
:1010740020EE08F09851D9269951DA22DE50DE107C
:10108400D8A447EF08F049EF08F04BEF08F0C1EFA0
:1010940005F020EE1EF09851D9269951DA22DECFC0
:1010A4004AF0DECF4BF0DECF4CF0DECF4DF08D5169
:1010B4004A244E6E8E514B204F6E8F514C20506EF1
:1010C40090514D20516E20EE22F09851D92699511D
:1010D400DA224EC0DEFF4FC0DEFF50C0DEFF51C03B
:1010E400DEFF020E9719D8B47AEF08F07CEF08F00F
:1010F400C2EF08F020EE12F09851D9269951DA2265
:10110400DECF4AF0DECF4BF0DECF4CF0DECF4DF039
:10111400010E4A144E6E000E4B144F6E000E4C140A
:10112400506E000E4D14516E20EE12F09851D926D7
:101134009951DA22DECF01F0DECF02F0DECF03F0E8
:10114400DECF04F0030E056E000E066E000E076E71
:10115400000E086E6BEC2DF0D8900432033202328C
:1011640001324E5001240001766F4F500220776FF8
:1011740050500320786F51500420796FD9EF08F054
:1011840020EE12F09851D9269951DA22DECF4AF096
:10119400DECF4BF0DECF4CF0DECF4DF0D8904A34AA
:1011A400766F4B34776F4C34786F4D34796FFF0E14
:1011B40076254A6E010E77214B6E000E78214C6E17
:1011C400000E79214D6E0A0EEDEF08F0D8904D32E5
:1011D4004C324B324A32E82EE8EF08F020EE16F09B
:1011E4009851D9269951DA224A50DE5C4B50DE5888
:1011F4004C50DE584D50DE58D8B003EF09F005EFDF
:1012040009F007EF09F0C1EF05F020EE0EF0985158
:10121400D9269951DA22FF0EDE6EFF0EDE6EFF0E26
:10122400DE6EFF0EDD6EDD52DD5210EE0AF09851D7
:10123400E1269951E222DECFE6FFDECFE6FFDECFE4
:10124400E6FFDECFE6FF20EE05F09851D92699514E
:10125400DA22800EDF6E030E9719D8A434EF09F05A
:1012640036EF09F0D1EF09F020EE5EF09851D9265F
:101274009951DA22DE04DE10D8A443EF09F045EFD9
:1012840009F0D1EF09F098C030F099C031F0010EA7
:101294009125326E000E9221336E000E9321346E2E
:1012A400000E9421356EE8EC2AF00009D8A45DEF15
:1012B40009F05FEF09F0D1EF09F0000120EE05F02D
:1012C4009851D9269951DA22DF6A22EE2CF09851EE
:1012D400D9269951DA22550EDE1807E1AA0EDE1836
:1012E400D8A477EF09F079EF09F0D1EF09F020EEF7
:1012F4002EF09851D9269951DA22520EDE180DE1BA
:10130400520EDE180AE1610EDE1807E1410EDE1806
:10131400D8A48FEF09F091EF09F0D1EF09F022EE94
:1013240012F09851D9269951DA22720EDE180DE185
:10133400720EDE180AE1410EDE1807E1610EDE18B6
:10134400D8A4A7EF09F0A9EF09F0D1EF09F022EE34
:1013540016F09851D9269951DA2210EE0EF09851D0
:10136400E1269951E222DECFE6FFDECFE6FFDECFB3
:10137400E6FFDECFE6FF22EE1AF09851D926995106
:10138400DA2210EE0AF09851E1269951E222DECFDA
:10139400E6FFDECFE6FFDECFE6FFDECFE6FF98C056
:1013A400D9FF99C0DAFF97C0DFFF0001D24BD32BDE
:1013B40020EE06F09851D9269951DA22D2C0DEFFE8
:1013C400D3C0DDFF86EF04F012006FC082F070C05E
:1013D40083F073C0D9FF74C0DAFFDE6ADD6A6DC0C2
:1013E40002F06EC003F021EC2AF00001816F8151FC
:1013F400D8B4FFEF09F001EF0AF003EF0AF02FEF82
:101404000EF020EE05F06D51D9266E51DA22DF5030
:10141400D8B40FEF0AF011EF0AF013EF0AF02FEF30
:101424000EF020EE04F06D51D9266E51DA22DFB2AF
:101434001EEF0AF020EF0AF022EF0AF02FEF0EF071
:1014440020EE06F06D51D9266E51DA2210EE06F028
:101454006D51E1266E51E222E6CF79F0E6CF7AF0C3
:10146400E6CF7BF0E6CF7CF0715179257D6F725128
:101474007A217E6F000E7B217F6F000E7C21806FAE
:10148400DE507D5DDE507E59DE507F59DE5080593E
:10149400D8B04FEF0AF051EF0AF0EFEF0DF0000E65
:1014A400726F000E716FEFEF0DF020EE06F06D51CC
:1014B400D9266E51DA22FF0EDE14756F010EDE148A
:1014C400766F000EDE14776F000EDE14786F7551A0
:1014D400761177117811D8A472EF0AF074EF0AF03C
:1014E40044EF0DF020EE06F06D51D9266E51DA224C
:1014F400DECF75F0DECF76F0DECF77F0DECF78F09A
:101504000A0E8AEF0AF0D89078337733763375333E
:10151400E82E85EF0AF06DC0D9FF6EC0DAFF10EE39
:1015240002F0DE50E126DD50E222E750796F7905C2
:101534007515846F8451D8A4A2EF0AF0A4EF0AF0C1
:1015440072EF0BF020EE06F06D51D9266E51DA22BF
:10155400DE50DE10DE10DE10D8A4B3EF0AF0B5EFD3
:101564000AF0EAEF0AF020EE0EF06D51D9266E5122
:10157400DA22DECF8BF0DECF8CF0DECF8DF0DECF43
:101584008EF08B518C118D118E11D8A4CCEF0AF0F2
:10159400CEEF0AF00AEF0BF06DC0D9FF6EC0DAFF90
:1015A400DECF56F0DDCF57F0000E586E000E596EA8
:1015B400000E5A6E000E5B6EFEEC1BF056C08BF0F4
:1015C40057C08CF058C08DF059C08EF00AEF0BF064
:1015D4006DC0D9FF6EC0DAFFDECF56F0DDCF57F015
:1015E40020EE12F06D51D9266E51DA22DECF58F07A
:1015F400DECF59F0DECF5AF0DECF5BF0FEEC1BF00D
:1016040056C08BF057C08CF058C08DF059C08EF086
:1016140000018B518C118D118E11D8A414EF0BF095
:1016240016EF0BF018EF0BF0F8EF0DF08B058C11A3
:101634008D118E11D8A421EF0BF023EF0BF02DEFB9
:101644000BF020EE05F06D51D9266E51DA22020E10
:10165400DF6E2FEF0EF08B290AE18C2908E18D292A
:1016640006E18E29D8A439EF0BF03BEF0BF045EFE0
:101674000BF020EE05F06D51D9266E51DA22010EE1
:10168400DF6E2FEF0EF020EE12F06D51D9266E5161
:10169400DA228BC0DEFF8CC0DEFF8DC0DEFF8EC081
:1016A400DEFF20EE0EF06D51D9266E51DA22DE50A7
:1016B400DE10DE10DE10D8A462EF0BF064EF0BF046
:1016C40072EF0BF020EE0EF06D51D9266E51DA2236
:1016D4008BC0DEFF8CC0DEFF8DC0DEFF8EC0DEFF60
:1016E40020EE16F06D51D9266E51DA226DC0E1FF5D
:1016F4006EC0E2FF00EE2AF0E650E926E550EA2249
:10170400DE50EE180DE1DE50EE180AE1DE50EE1860
:1017140007E1DE50EE18D8A492EF0BF094EF0BF033
:10172400B1EF0BF06DC0D9FF6EC0DAFFDECF1BF056
:10173400DDCF1CF065EC24F00009D8B4A4EF0BF065
:10174400A6EF0BF0B1EF0BF0000120EE05F06D51A8
:10175400D9266E51DA22010EDF6E2FEF0EF06DC026
:10176400D9FF6EC0DAFFDECF0DF0DDCF0EF0000141
:1017740020EE12F06D51D9266E51DA22DECF0FF031
:10178400DECF10F0DECF11F0DECF12F085EC2AF0C0
:101794000DC087F00EC088F00FC089F010C08AF029
:1017A40000018751881189118A11D8A4DCEF0BF04C
:1017B400DEEF0BF0E8EF0BF020EE05F06D51D926CB
:1017C4006E51DA22020EDF6E2FEF0EF0845187275E
:1017D400000E882389238A2371C075F072C076F0C5
:1017E400090E776FD89076337533772FF4EF0BF0BB
:1017F40075C085F076C086F085518611D8B405EFA2
:101804000CF007EF0CF0EBEF0CF084518525756FAD
:10181400000E8621766F6DC0D9FF6EC0DAFF10EE20
:1018240002F0DE50E126DD50E222E750776F786B5C
:101834007551775D76517859D8B023EF0CF025EFC8
:101844000CF037EF0CF06DC0D9FF6EC0DAFF10EE6C
:1018540002F0DE50E126DD50E222E750756F84513C
:10186400755D856F866BD8A0860782C011F083C032
:1018740012F087C013F088C014F089C015F08AC034
:1018840016F085C017F086C018F06DC0D9FF6EC081
:10189400DAFF10EE01F0DE50E126DD50E222E750DF
:1018A40090EC23F00009D8B45AEF0CF05CEF0CF084
:1018B40067EF0CF0000120EE05F06D51D9266E5152
:1018C400DA22010EDF6E2FEF0EF000018551756FE5
:1018D4008651766F776B786B6DC0D9FF6EC0DAFF77
:1018E40010EE2AF0DE50E126DD50E222E6CF79F058
:1018F400E6CF7AF0E6CF7BF0E6CF7CF08751795DD6
:101904007D6F88517A597E6F89517B597F6F8A51D7
:101914007C59806F75517D5D76517E5977517F5921
:1019240078518059D8B099EF0CF09BEF0CF0D9EFB7
:101934000CF06DC0D9FF6EC0DAFFDECF75F0DDCFDD
:1019440076F02E0E7525016E000E7621026E6DC0A6
:10195400D9FF6EC0DAFF10EE2AF0DE50E126DD502A
:10196400E222E6CF77F0E5CF78F08751775F8851B0
:10197400785B090ED89077377837E82EBCEF0CF0F7
:1019840077518225036E78518321046E020E066E10
:10199400000E056EB8EC29F06DC0D9FF6EC0DAFFF9
:1019A40010EE04F0DE50E126DD50E222E76A85C045
:1019B40075F086C076F0090ED89000017537763739
:1019C400E82EDEEF0CF075C08FF076C090F0D1EF0A
:1019D4000DF020EE0AF06D51D9266E51DA2210EE88
:1019E40006F06D51E1266E51E222DE50E65CDE50D7
:1019F400E658DE50E658DE50E658D8A004EF0DF065
:101A040006EF0DF035EF0DF06DC0D9FF6EC0DAFFB3
:101A1400DECF1BF0DDCF1CF065EC24F00009D8B458
:101A240016EF0DF018EF0DF023EF0DF0000120EE8E
:101A340005F06D51D9266E51DA22010EDF6E2FEFBB
:101A44000EF06DC0D9FF6EC0DAFF10EE2AF0DE5042
:101A5400E126DD50E22287C0E6FF88C0E6FF89C0A8
:101A6400E6FF8AC0E6FF000120EE16F06D51D9268C
:101A74006E51DA2287C0DEFF88C0DEFF89C0DEFF38
:101A84008AC0DEFF20EE06F06D51D9266E51DA22AF
:101A9400DECF75F0DDCF76F0FF0E7515776F010E92
:101AA4007615786F775100088F6F7851D8A0E82A9F
:101AB4000208906F8F51715D90517259D8B065EFE3
:101AC4000DF067EF0DF06BEF0DF071C08FF072C089
:101AD40090F06DC0D9FF6EC0DAFFDECF30F0DDCFFD
:101AE40031F020EE16F06D51D9266E51DA22DECF98
:101AF40032F0DECF33F0DECF34F0DECF35F0E8EC79
:101B04002AF00009D8B489EF0DF08BEF0DF096EFB1
:101B14000DF0000120EE05F06D51D9266E51DA2248
:101B2400010EDF6E2FEF0EF0000120EE06F06D5176
:101B3400D9266E51DA22DECF75F0DDCF76F0FF0EB6
:101B44007515776F010E7615786F6DC0D9FF6EC06D
:101B5400DAFFDECF79F0DDCF7AF0775179257B6F2C
:101B640078517A217C6F2E0E7B25016E000E7C212C
:101B7400026E82C003F083C004F08FC005F090C0F1
:101B840006F0B8EC29F06DC0D9FF6EC0DAFF10EE94
:101B940004F0DE50E126DD50E222010EE76E000182
:101BA4008F5182279051832320EE06F06D51D92660
:101BB4006E51DA228F51DE269051DE22000EDE2293
:101BC400DE2273C0D9FF74C0DAFF8F51DE26905134
:101BD400DD228F51715F9051725B71517211D8A4E3
:101BE400F6EF0DF0F8EF0DF057EF0AF020EE06F0E7
:101BF4006D51D9266E51DA2210EE0AF06D51E126AC
:101C04006E51E222DE50E65CDE50E658DE50E658C5
:101C1400DE50E658D8B011EF0EF013EF0EF027EFB8
:101C24000EF020EE06F06D51D9266E51DA2210EE38
:101C34000AF06D51E1266E51E222DECFE6FFDECFDF
:101C4400E6FFDECFE6FFDECFE6FF20EE04F06D51C7
:101C5400D9266E51DA22000EDB8A12002F6E12C0D2
:101C640036F013C037F02F50D8B43BEF0EF03DEFF1
:101C74000EF040EF0EF0040E31EF11F0010E346E51
:101C84000001F7A148EF0EF04AEF0EF001EF11F05A
:101C9400030E31EF11F09EEC2EF00009D8B455EF8D
:101CA4000EF057EF0EF02EEF11F0000E346E2EEF03
:101CB40011F0000E0B6E000E0C6E000E0D6E000E79
:101CC4000E6E090EFEEC2DF00009D8A46CEF0EF098
:101CD4006EEF0EF02EEF11F01F0E026E000E036E6B
:101CE400000E056E100E046E52EC2CF00009D8B4F0
:101CF4007EEF0EF080EF0EF02EEF11F01F44E84659
:101D0400030BE806D8A489EF0EF08BEF0EF0D5EFA5
:101D14000EF026C014F03F0E141614C015F0166A07
:101D2400176A186A16C018F015C017F0166A156AF3
:101D340027501A6E2850196E195015241B6E1A500C
:101D440016201C6E000E17201D6E000E18201E6E2D
:101D5400010E1B24306E000E1C20316E000E1D205F
:101D6400326E000E1E20336E30C014F031C015F0F8
:101D740032C016F033C017F00A0ED8901436153658
:101D840016361736E82EBFEF0EF012C0D9FF13C077
:101D9400DAFF14C0DEFF15C0DEFF16C0DEFF17C079
:101DA400DEFF57EF0EF0146A29AE01D0142A010E9B
:101DB400141624C015F00F0E15162850030B020D2F
:101DC400F35015241424020F356E2550030B146EA2
:101DD400156A0A0ED89014361536E82EECEF0EF07C
:101DE4002650166E176AD89016361736D8901636BF
:101DF400173627C018F0060E196ED8901832192E0F
:101E0400FFEF0EF0185016241A6E000E17201B6EEA
:101E140014501A241C6E15501B201D6E010E1C2616
:101E2400000E1D221CC030F01DC031F0326A336A2E
:101E340035C014F0F70E142630C015F031C016F07A
:101E440032C017F033C018F0142A2EEF0FF0D890D8
:101E54001536163617361836142E29EF0FF012C021
:101E6400D9FF13C0DAFF15C0DEFF16C0DEFF17C0AE
:101E7400DEFF18C0DEFF57EF0EF0D6A544EF0FF0DB
:101E840046EF0FF0A1EF0FF0000E0B6E000E0C6E7C
:101E9400000E0D6E000E0E6E8D0EFEEC2DF0000980
:101EA400D8A457EF0FF059EF0FF02EEF11F0FF0EFB
:101EB400E9EC2EF01F0E026E000E036E000E056E8E
:101EC400100E046E52EC2CF00009D8B46CEF0FF035
:101ED4006EEF0FF02EEF11F0300E356E76EF0FF03F
:101EE400FF0EE9EC2EF035063550D8A47CEF0FF048
:101EF4007EEF0FF072EF0FF029C014F0143A0F0EBA
:101F04001416100E156E166A176A186A142A90EFC2
:101F14000FF0D8901536163617361836142E8BEF68
:101F24000FF012C0D9FF13C0DAFF15C0DEFF16C0D0
:101F3400DEFF17C0DEFF18C0DEFF57EF0EF0000E05
:101F44000B6E000E0C6E000E0D6E000E0E6E090E62
:101F5400FEEC2DF00009D8A4B2EF0FF0B4EF0FF0AF
:101F64002EEF11F01F0E026E000E036E000E056EB2
:101F7400100E046E52EC2CF00009D8B4C4EF0FF02C
:101F8400C6EF0FF02EEF11F00001D6A3CCEF0FF047
:101F9400CEEF0FF00BEF10F02CC014F0060E156E00
:101FA400D8901432152ED2EF0FF0FF0E14262950BC
:101FB4003F0B166E176AD89016361736186A2AAE73
:101FC40001D0182A010E181618501626000E1722D2
:101FD400010E1626000E1722142AF4EF0FF0D890E3
:101FE40016361736142EF1EF0FF01650196E1750DF
:101FF4001A6E1B6A1C6A12C0D9FF13C0DAFF19C01B
:10200400DEFF1AC0DEFF1BC0DEFF1CC0DEFF57EF81
:102014000EF029C014F0D8901432D89014321F0E48
:102024001416010E1424016E026A000E02222A50B4
:10203400030B156E166AD89015361636D8901536D9
:102044001636D890153616362AC017F0050E186EB7
:10205400D8901732182E2AEF10F0070E17161750C3
:102064001526000E1622010E1524036E000E1620EE
:10207400046EC7EC2EF00150196E02501A6E1B6AE2
:102084001C6A12C0D9FF13C0DAFF19C0DEFF1AC0E0
:10209400DEFF1BC0DEFF1CC0DEFF57EF0EF036C0B4
:1020A400D9FF37C0DAFFD6C0DFFF57EF0EF0000EBE
:1020B4000B6E000E0C6E000E0D6E000E0E6E090EF1
:1020C400FEEC2DF00009D8A46AEF10F06CEF10F0CC
:1020D4002EEF11F036C002F037C003F0000E056E8B
:1020E400100E046E52EC2CF00009D8B47CEF10F002
:1020F4007EEF10F02EEF11F057EF0EF0000E0B6E86
:10210400000E0C6E000E0D6E000E0E6E0A0EFEEC2E
:102114002DF00009D8A491EF10F093EF10F02EEFFA
:1021240011F036C002F037C003F0000E056E100E39
:10213400046E52EC2CF00009D8B4A3EF10F0A5EF14
:1021440010F02EEF11F057EF0EF0000E0B6E000E94
:102154000C6E000E0D6E000E0E6E3A0EFEEC2DF09F
:102164000009D8A4B8EF10F0BAEF10F02EEF11F078
:10217400040E356EC9EF10F0FF0EE9EC2EF036C0F8
:10218400D9FF37C0DAFFDF6E364A372A35063550B5
:10219400D8A4CFEF10F0D1EF10F0BEEF10F057EF4E
:1021A4000EF0000E0B6E000E0C6E000E0D6E000E87
:1021B4000E6E8D0EFEEC2DF00009D8A4E4EF10F0A5
:1021C400E6EF10F02EEF11F0FF0EE9EC2EF036C022
:1021D40002F037C003F0000E056E400E046E52ECA0
:1021E4002CF00009D8B4F9EF10F0FBEF10F02EEF4B
:1021F40011F057EF0EF0040E346E2EEF11F0115063
:10220400146E156A1550000AD8B40BEF11F0FDEFE7
:1022140010F01450000AD8B44DEF0EF0010AD8B4EF
:102224005BEF0EF0020AD8B43FEF0FF0090AD8B4FE
:1022340051EF10F0010AD8B459EF10F0070AD8B4DE
:1022440080EF10F0010AD8B4A7EF10F0030AD8B455
:10225400D3EF10F0FDEF10F002EC2FF03450120029
:10226400000120EE04F06D51D9266E51DA22DECF42
:1022740071F0DDCF72F0010E71257B6F000E7221BB
:102284007C6F7B517C11D8B44AEF11F04CEF11F004
:102294005DEF11F020EE0EF06D51D9266E51DA2269
:1022A400DE50DE10DE10DE10D8A45BEF11F05DEF1F
:1022B40011F060EF11F0040E97EF13F00F0E7B1581
:1022C400716F000E7C15726F71517211D8A46DEF8D
:1022D40011F06FEF11F063EF13F020EE0EF06D517B
:1022E400D9266E51DA22DE2A000EDE22DE22DE221A
:1022F40020EE0AF06D51D9266E51DA22DE50DE103E
:10230400DE10DE10D8A489EF11F08BEF11F0A2EFEC
:1023140011F06DC0D9FF6EC0DAFF10EE08F0DE5088
:10232400E126DD50E222E6507B5DE6507C59D8A0E0
:102334009EEF11F0A0EF11F063EF13F05DEF11F0D9
:102344007BC071F07CC072F0040E736FD89072334E
:102354007133732FA8EF11F06DC0D9FF6EC0DAFF8F
:1023640010EE02F0DE50E126DD50E222E750746FF9
:10237400FF0E7425756F766BFF0E762371517515FC
:10238400776F72517615786F77517811D8A4CDEFA5
:1023940011F0CFEF11F063EF13F06DC0D9FF6EC0F1
:1023A400DAFFDECF3BF0DDCF3CF020EE0AF06D51DA
:1023B400D9266E51DA22DECF3DF0DECF3EF0DECFFD
:1023C4003FF0DECF40F01FEC18F03BC07DF03CC086
:1023D4007EF03DC07FF03EC080F0000180517F114F
:1023E4007E1107E1020E7D5DD8B0FBEF11F0FDEF29
:1023F40011F000EF12F0020E97EF13F07D290AE1BD
:102404007E2908E17F2906E18029D8A40CEF12F087
:102414000EEF12F011EF12F0010E97EF13F06DC0F2
:10242400D9FF6EC0DAFF10EE12F0DE50E126DD5067
:10243400E222E6507D5DE6507E59E6507F59E65033
:102444008059D8A028EF12F02AEF12F034EF13F0DD
:102454006F517011D8A431EF12F033EF12F035EF51
:1024640012F05DEF11F06DC0D9FF6EC0DAFFDECF60
:1024740056F0DDCF57F020EE0AF06D51D9266E519B
:10248400DA22DECF58F0DECF59F0DECF5AF0DECFBD
:102494005BF0FEEC1BF056C07DF057C07EF058C0D8
:1024A4007FF059C080F000017D517E117F118011B1
:1024B400D8A45FEF12F061EF12F064EF12F0070E90
:1024C40097EF13F07D057E117F118011D8A46DEF75
:1024D40012F06FEF12F071EF12F0FDEF11F07D29A1
:1024E4000AE17E2908E17F2906E18029D8A47DEF4D
:1024F40012F07FEF12F081EF12F00EEF12F06DC0C8
:10250400D9FF6EC0DAFFDECF1BF0DDCF1CF065EC27
:1025140024F00009D8B491EF12F093EF12F095EF84
:1025240012F00EEF12F06DC0D9FF6EC0DAFFDECFED
:1025340071F0DDCF72F02E0E00017125016E000ED8
:102544007221026E000E046E000E036E020E066E01
:10255400000E056E6DEC2EF06DC0D9FF6EC0DAFF73
:10256400DECF0DF0DDCF0EF07DC00FF07EC010F099
:102574007FC011F080C012F085EC2AF06DC0D9FF45
:102584006EC0DAFF10EE2AF0DE50E126DD50E222C2
:102594000DC0E6FF0EC0E6FF0FC0E6FF10C0E6FF69
:1025A400000E00017A6F000E796F0BEF13F06DC00F
:1025B400D9FF6EC0DAFF10EE04F0DE50E126DD50E4
:1025C400E222010EE76E6DC0D9FF6EC0DAFFDECFE6
:1025D4001BF0DDCF1CF065EC24F00009D8B4F5EF56
:1025E40012F0F7EF12F0F9EF12F00EEF12F06DC0E7
:1025F400D9FF6EC0DAFF10EE2AF0DE50E126DD507E
:10260400E222E62A000EE622E622E6220001794BC7
:102614007A2B6DC0D9FF6EC0DAFF10EE02F0DE50E7
:10262400E126DD50E222E750716F726B7151795DE2
:1026340072517A59D8A021EF13F023EF13F0D9EF98
:1026440012F06DC0D9FF6EC0DAFF10EE2AF0DE5032
:10265400E126DD50E2227951E65E7A51E65A000E17
:10266400E65AE65A20EE0AF06D51D9266E51DA2266
:102674007DC0DEFF7EC0DEFF7FC0DEFF80C0DEFFE8
:102684006DC0D9FF6EC0DAFFDECF0DF0DDCF0EF0E6
:102694007DC00FF07EC010F07FC011F080C012F03A
:1026A40085EC2AF0000120EE0EF06D51D9266E5112
:1026B400DA220DC0DEFF0EC0DEFF0FC0DEFF10C049
:1026C400DEFF20EE04F06D51D9266E51DA227BC074
:1026D400DEFF7CC0DDFF0F0E7B15716F000E7C15D5
:1026E400726F050ED89071377237E82E74EF13F0BD
:1026F4006DC0D9FF6EC0DAFFDECF73F0DDCF74F0AA
:1027040071517325756F72517421766F2E0E752772
:10271400000E762320EE12F06D51D9266E51DA2286
:1027240075C0DEFF76C0DDFF000E120040503F1082
:102734003E1009E1020E3D5CD8A0A3EF13F0A5EF13
:1027440013F0BAEF13F020EE12F03B50D9263C50B0
:10275400DA22DE503D5CDE503E58DE503F58DE50FB
:102764004058D8A0B8EF13F0BAEF13F0CBEF15F040
:10277400020E536EE8EF15F03DC051F03EC052F02A
:10278400D8905230466E5130456E455051264650D1
:1027940052223BC030F03CC031F020EE1EF03B50E2
:1027A400D9263C50DA22DECF45F0DECF46F0DECF2C
:1027B40047F0DECF48F051C049F052C04AF0090E4C
:1027C4004B6ED8904A3249324B2EE3EF13F0495006
:1027D4004524326E4A504620336E000E4720346E34
:1027E400000E4820356EE8EC2AF0536E5350D8B4EE
:1027F400FEEF13F000EF14F002EF14F0E8EF15F021
:10280400FF0E5114456E010E5214466E45503B2482
:10281400476E46503C20486E2E0E4724546E000EE0
:102824004820556E514A522A3DB01BEF14F01DEF5B
:1028340014F022EF14F041C04DF04E6A3CEF14F056
:102844004150456E466A453A463AF00E46164550A2
:102854000F0B4612F00E451654C0D9FF55C0DAFFCF
:10286400DF500F0B476E486A455047104D6E465077
:1028740048104E6E54C0D9FF55C0DAFF4DC0DFFF7B
:1028840020EE04F03B50D9263C50DA22010EDF6ED4
:102894003BC030F03CC031F020EE1EF03B50D92656
:1028A4003C50DA22DECF45F0DECF46F0DECF47F0F3
:1028B400DECF48F051C049F052C04AF0090E4B6EC9
:1028C400D8904A3249324B2E62EF14F049504524D5
:1028D400326E4A504620336E000E4720346E000E8E
:1028E4004820356EE8EC2AF0536E5350D8B47DEF8F
:1028F40014F07FEF14F081EF14F0E8EF15F0FF0E01
:102904005114456E010E5214466E45503B24476ED9
:1029140046503C20486E2E0E4724546E000E48202C
:10292400556E3DB098EF14F09AEF14F0B8EF14F030
:1029340041C045F042C046F043C047F044C048F0AF
:1029440046C045F047C046F048C047F0486A0F0EFD
:10295400451654C0D9FF55C0DAFFDF50F00B4510BF
:10296400496E49504F6E506ACEEF14F041C045F0A5
:1029740042C046F043C047F044C048F0050EC8EFDB
:1029840014F0D8904832473246324532E82EC3EF2D
:1029940014F045504F6E506A54C0D9FF55C0DAFF49
:1029A4004FC0DFFF20EE04F03B50D9263C50DA2222
:1029B400010EDF6EE8EF15F03BC030F03CC031F0A3
:1029C40020EE1EF03B50D9263C50DA22DECF45F0F3
:1029D400DECF46F0DECF47F0DECF48F03DC049F011
:1029E4003EC04AF03FC04BF040C04CF04AC049F0F2
:1029F4004BC04AF04CC04BF04C6A45504924326EEF
:102A040046504A20336E47504B20346E48504C2079
:102A1400356EE8EC2AF0536E5350D8B414EF15F029
:102A240016EF15F018EF15F0E8EF15F03DC045F07E
:102A34003EC046F0D89045364636FF0E4514476EE4
:102A4400010E4614486E47503B24496E48503C20C2
:102A54004A6E2E0E4924546E000E4A20556E54C000
:102A6400D9FF55C0DAFF41C0DEFF42C0DDFF20EED2
:102A740004F03B50D9263C50DA22010EDF6EE8EF19
:102A840015F03BC030F03CC031F020EE1EF03B505E
:102A9400D9263C50DA22DECF45F0DECF46F0DECF39
:102AA40047F0DECF48F03DC049F03EC04AF03FC099
:102AB4004BF040C04CF0080E65EF15F0D8904C3246
:102AC4004B324A324932E82E60EF15F04550492422
:102AD400326E46504A20336E47504B20346E485075
:102AE4004C20356EE8EC2AF0536E5350D8B47DEF89
:102AF40015F07FEF15F081EF15F0E8EF15F03DC00C
:102B040045F03EC046F0D89045364636D890453616
:102B14004636FF0E4514476E010E4614486E475064
:102B24003B24496E48503C204A6E2E0E4924546E74
:102B3400000E4A20556E54C0D9FF55C0DAFF000E6E
:102B4400DE14456E000EDE14466E000EDE14476E73
:102B5400F00EDE14486E4550411246504212475062
:102B640043124850441254C0D9FF55C0DAFF41C043
:102B7400DEFF42C0DEFF43C0DEFF44C0DEFF20EEC6
:102B840004F03B50D9263C50DA22010EDF6EE8EF08
:102B940015F03BC0D9FF3CC0DAFFDF50456E466AF2
:102BA4004650000AD8B4D9EF15F0BAEF13F04550E7
:102BB400010AD8B4BEEF13F0030AD8B4DEEF14F060
:102BC400010AD8B443EF15F0BAEF13F053501200D2
:102BD40000019A519B11D8A4F2EF15F0F4EF15F00F
:102BE400F7EF15F0090E1EEF18F09AC0D9FF9BC03D
:102BF400DAFFDE6ADD6AD4C0BAF0D5C0BBF01F0EBE
:102C04009E17BA0E456E000E466E9C0E476E000E61
:102C1400486E9E51FE0B496E1AEC04F00001B76F2A
:102C2400B751D8A418EF16F01AEF16F01DEF18F0EC
:102C3400A30ECE6F000ECF6FBA0E876F000E886F93
:102C44009CC089F09DC08AF0E1EC21F00001B76FCF
:102C5400CCC0B8F0CDC0B9F0B751D8A434EF16F059
:102C640036EF16F041EF16F0B851B911D8A43DEF84
:102C740016F03FEF16F041EF16F0060EB76F9EC048
:102C84009FF01C0E9F17D8B44AEF16F04CEF16F0C5
:102C94004CEF17F0B751D8B452EF16F054EF16F0CA
:102CA4006CEF16F0040EB719D8A45BEF16F05DEFC5
:102CB40016F065EF16F0BA0E8B6F000E8C6FD2EC27
:102CC40028F00001B76F9E87CCC0B8F0CDC0B9F032
:102CD4008AEF16F020EE0BF0B851D926B951DA225A
:102CE400DF509F6F110E9F17D8B47BEF16F07DEF66
:102CF40016F081EF16F0070EB76F8AEF16F09EA557
:102D040086EF16F088EF16F08AEF16F0080EB76F0C
:102D1400B751D8A490EF16F092EF16F07BEF17F0AE
:102D24009EA797EF16F099EF16F07BEF17F020EEC1
:102D34000EF0B851D926B951DA22000EDE6E000E1B
:102D4400DE6E210EDE6E460EDD6E20EE16F0B851FC
:102D5400D926B951DA22000EDE6E000EDE6E210E87
:102D6400DE6E460EDD6E20EE0BF0B851D926B95159
:102D7400DA22DF6A20EE1CF0B851D926B951DA22E2
:102D8400DE6ADE6ADE6ADD6ABAC001F0BBC002F048
:102D9400B8C003F0B9C004F0EAEC2CF001C0AFF005
:102DA40002C0B0F003C0B1F004C0B2F0B8C001F08A
:102DB400B9C002F0000E036E000E046E000E056E24
:102DC400000E066E89EC2EF0000120EE04F0BA51DC
:102DD400D926BB51DA22010EDF6EAF51B011B11109
:102DE400B211D8B4F8EF16F0FAEF16F07BEF17F043
:102DF40020EE2AF0BA51D926BB51DA22DECFB3F045
:102E0400DECFB4F0DECFB5F0DECFB6F0BAC056F008
:102E1400BBC057F0AFC058F0B0C059F0B1C05AF0C1
:102E2400B2C05BF0B9EC22F00001B76FB751D8A47F
:102E34001EEF17F020EF17F07BEF17F0FF0EAF2512
:102E44009F6FFF0EB021A06FFF0EB121A16FFF0E87
:102E5400B221A26F20EE0AF0BA51D926BB51DA2270
:102E64009FC0DEFFA0C0DEFFA1C0DEFFA2C0DEFF68
:102E7400BAC030F0BBC031F0B3C032F0B4C033F0EC
:102E8400B5C034F0B6C035F0E8EC2AF00001B76FF5
:102E94007BEF17F0B751D8A452EF17F054EF17F0A7
:102EA4007BEF17F020EE0BF0B851D926B951DA2296
:102EB400DFA85FEF17F061EF17F065EF17F0040E6E
:102EC400B76F7BEF17F09EA36AEF17F06CEF17F064
:102ED4007BEF17F020EE0BF0B851D926B951DA2266
:102EE400DFA077EF17F079EF17F07BEF17F0070EFD
:102EF400B76FB751D8A481EF17F083EF17F0A9EF9C
:102F040017F09EA788EF17F08AEF17F08BEF17F0F2
:102F14009E8B20EE2AF0BA51D926BB51DA2210EE4C
:102F24001AF09A51E1269B51E222DECFE6FFDECF72
:102F3400E6FFDECFE6FFDECFE6FF20EE1EF09A517D
:102F4400D9269B51DA22B8C0DEFFB9C0DDFFB751E4
:102F5400D8A4AFEF17F0B1EF17F01DEF18F020EE83
:102F640004F09A51D9269B51DA229EC0DFFF20EE4D
:102F740005F09A51D9269B51DA22DF6ABAC001F0D2
:102F8400BBC002F0B8C003F0B9C004F0EAEC2CF006
:102F9400000120EE0EF09A51D9269B51DA2201C08D
:102FA400DEFF02C0DEFF03C0DEFF04C0DEFF20EE52
:102FB4001CF0B851D926B951DA2210EE0AF09A5110
:102FC400E1269B51E222DECFE6FFDECFE6FFDECF35
:102FD400E6FFDECFE6FF20EE06F09A51D9269B519C
:102FE400DA22DE6ADE6ADE6ADD6A20EE16F09A51C3
:102FF400D9269B51DA22DE6ADE6ADE6ADD6A9AC06D
:10300400D9FF9BC0DAFFBAC0DEFFBBC0DDFF9AC0A8
:10301400D9FF9BC0DAFF10EE06F0DE50E126DD504A
:10302400E22220EE02F09A51D9269B51DA22E6CF11
:10303400DEFFE5CFDDFFB751120040503F103E10D8
:1030440009E1020E3D5CD8A02AEF18F02CEF18F02D
:1030540041EF18F020EE12F03B50D9263C50DA2212
:10306400DE503D5CDE503E58DE503F58DE50405846
:10307400D8A03FEF18F041EF18F04BEF18F0010E15
:103084004B6E000E4C6E000E4D6E000E4E6E0FEF2A
:103094001AF04B684C684D684E68F2EF19F03DC069
:1030A40053F03EC054F0D8905430426E5330416EC9
:1030B40041505326425054223BC030F03CC031F0C2
:1030C40020EE1EF03B50D9263C50DA22DECF41F0F0
:1030D400DECF42F0DECF43F0DECF44F053C045F004
:1030E40054C046F0090E476ED89046324532472EFA
:1030F40076EF18F045504124326E46504220336E2C
:10310400000E4320346E000E4420356EE8EC2AF0A5
:103114000009D8B490EF18F092EF18F094EF18F07B
:103124000FEF1AF0FF0E5314416E010E5414426E49
:1031340041503B24436E42503C20446E2E0E4324A7
:10314400D96E000E4420DA6EDF50456E45504F6E46
:10315400506A534A542A3BC030F03CC031F020EE50
:103164001EF03B50D9263C50DA22DECF41F0DECFB0
:1031740042F0DECF43F0DECF44F053C045F054C0FC
:1031840046F0090E476ED89046324532472EC5EFB9
:1031940018F045504124326E46504220336E000EE2
:1031A4004320346E000E4420356EE8EC2AF000090A
:1031B400D8B4DFEF18F0E1EF18F0E3EF18F00FEFF9
:1031C4001AF0FF0E5314416E010E5414426E415016
:1031D4003B24436E42503C20446E2E0E4324D96E51
:1031E400000E4420DA6EDF50456E4550476E466A45
:1031F40046504F12475050123DB003EF19F005EFFF
:1032040019F00DEF19F0FF0E4F14496E0F0E501404
:103214004A6E1DEF19F04FC041F050C042F0040E49
:10322400436ED89042324132432E13EF19F041C01D
:1032340049F042C04AF049C04BF04AC04CF04D6AD4
:103244004E6A0FEF1AF03BC030F03CC031F020EE74
:103254001EF03B50D9263C50DA22DECF41F0DECFBF
:1032640042F0DECF43F0DECF44F03DC045F03EC037
:1032740046F03FC047F040C048F046C045F047C064
:1032840046F048C047F0486A41504524326E4250E7
:103294004620336E43504720346E44504820356EE8
:1032A400E8EC2AF00009D8B45AEF19F05CEF19F0F1
:1032B4005EEF19F00FEF1AF03DC041F03EC042F04E
:1032C400D89041364236FF0E4114436E010E42142B
:1032D400446E43503B24456E44503C20466E2E0EB3
:1032E4004524516E000E4620526E51C0D9FF52C083
:1032F400DAFFDECF41F0DDCF42F041C04BF042C0F7
:103304004CF04D6A4E6A0FEF1AF03BC030F03CC0EF
:1033140031F020EE1EF03B50D9263C50DA22DECFAD
:1033240041F0DECF42F0DECF43F0DECF44F03DC0CB
:1033340045F03EC046F03FC047F040C048F0080E9C
:10334400A9EF19F0D8904832473246324532E82E78
:10335400A4EF19F041504524326E42504620336E9A
:1033640043504720346E44504820356EE8EC2AF030
:103374000009D8B4C0EF19F0C2EF19F0C4EF19F086
:103384000FEF1AF03DC041F03EC042F0D8904136F4
:103394004236D89041364236FF0E4114436E010E38
:1033A4004214446E43503B24456E44503C20466EC8
:1033B4002E0E4524516E000E4620526E51C0D9FF88
:1033C40052C0DAFFFF0EDE144B6EFF0EDE144C6E9D
:1033D400FF0EDE144D6E0F0EDE144E6E0FEF1AF05C
:1033E4003BC0D9FF3CC0DAFFDF50416E426A425015
:1033F400000AD8B400EF1AF041EF18F04150010A66
:10340400D8B451EF18F0030AD8B425EF19F0010A23
:10341400D8B487EF19F041EF18F04BC03BF04CC023
:103424003CF04DC03DF04EC03EF012000BC0D9FF41
:103434000CC0DAFFDECF16F0DDCF17F024EF1AF060
:10344400164A172A16C0F6FF17C0F7FF0800F550F2
:103454002F0AD8B430EF1AF032EF1AF022EF1AF034
:1034640016C0F6FF17C0F7FF0800F5505C0AD8B481
:103474003EEF1AF040EF1AF022EF1AF020EE14F0AB
:103484000950D9260A50DA22DECF19F0DDCF1AF01E
:1034940019C001F01AC002F0000E046E200E036E73
:1034A400000E066E0B0E056E6DEC2EF0000E136E04
:1034B40013C01BF01C6A1BC011F01CC012F0000EDC
:1034C400156E080E146E115016240D6E125017202E
:1034D4000E6E0DC0F6FF0EC0F7FF0800F5CF1DF00D
:1034E400114A122A200E1D647AEF1AF07CEF1AF0AA
:1034F40090EF1BF02F0E1D18D8B483EF1AF085EF50
:103504001AF090EF1BF05C0E1D18D8A48CEF1AF083
:103514008EEF1AF090EF1AF090EF1BF02E0E1D189C
:10352400D8B497EF1AF099EF1AF0A4EF1AF01450E8
:103534001B5C15501C58D8A0A2EF1AF0A4EF1AF087
:10354400C8EF1AF0080E14181510D8A4ACEF1AF02E
:10355400AEEF1AF0B7EF1AF02E0E1D18D8B4B5EF6F
:103564001AF0B7EF1AF0BAEF1AF0060EFDEF1BF0DF
:10357400000E1C6E080E1B6E000E156E0B0E146EE4
:10358400D8901336D890133665EF1AF07F0E1D6469
:10359400CEEF1AF0D0EF1AF0D2EF1AF0030E131296
:1035A400800E1D64D8EF1AF0DAEF1AF0E2EF1AF089
:1035B4009F0E1D64E0EF1AF0E2EF1AF0F2EF1AF03A
:1035C400DF0E1D64E8EF1AF0EAEF1AF04AEF1BF081
:1035D400FD0E1D60F0EF1AF0F2EF1AF04AEF1BF047
:1035E400115016240D6E125017200E6E0DC0F6FFEA
:1035F4000EC0F7FF0800F5CF18F0114A122A3F0E4B
:10360400186407EF1BF009EF1BF011EF1BF07E0E9F
:1036140018640FEF1BF011EF1BF021EF1BF07F0E6E
:10362400186417EF1BF019EF1BF0B7EF1AF0FD0E3B
:1036340018601FEF1BF021EF1BF0B7EF1AF0FF0E1D
:1036440014240D6EFF0E15200E6E0D501B5C0E50D3
:103654001C58D8A030EF1BF032EF1BF034EF1BF0F6
:10366400B7EF1AF01B501924D96E1C501A20DA6EC9
:103674001DC0DFFF1B4A1C2A1B501924D96E1C5085
:103684001A20DA6E18C0DFFF1B4A1C2A65EF1AF0F5
:103694001A0E016E080E026E1DC003F0046AA0EC3F
:1036A4002DF001500210D8B45AEF1BF05CEF1BF060
:1036B4005EEF1BF0B7EF1AF0400E1D6464EF1BF0D1
:1036C40066EF1BF071EF1BF05B0E1D606CEF1BF0DF
:1036D4006EEF1BF071EF1BF0138284EF1BF0600E92
:1036E4001D6477EF1BF079EF1BF084EF1BF07B0E6A
:1036F4001D607FEF1BF081EF1BF084EF1BF0138044
:10370400200E1D5E1B501924D96E1C501A20DA6E2F
:103714001DC0DFFF1B4A1C2A65EF1AF01150162446
:103724000D6E125017200E6E0BC0D9FF0CC0DAFFBD
:103734000DC0DEFF0EC0DDFF200E1D64A4EF1BF0E4
:10374400A6EF1BF0ACEF1BF0000E106E000E0F6E18
:10375400B0EF1BF0000E106E040E0F6E0FC01DF0C4
:103764001B501C10D8A4B9EF1BF0BBEF1BF0BDEF2E
:103774001BF0B7EF1AF019C0D9FF1AC0DAFFE50E33
:10378400DE18D8A4C8EF1BF0CAEF1BF0D0EF1BF073
:1037940019C0D9FF1AC0DAFF050EDF6E080E14181F
:1037A4001510D8A4D8EF1BF0DAEF1BF0DEEF1BF0F6
:1037B400D8901336D89013361350030BE806D8A4C8
:1037C400E6EF1BF0E8EF1BF0E9EF1BF01D88135048
:1037D4000C0B040AD8A4F1EF1BF0F3EF1BF0F4EF89
:1037E4001BF01D8620EE0BF01950D9261A50DA2250
:1037F4001DC0DFFF000E1200585059105A105B1004
:10380400D8A407EF1CF009EF1CF042EF1CF020EEE7
:103814000AF05650D9265750DA22DECF61F0DECFB7
:1038240062F0DECF63F0DECF64F00001615162111B
:1038340063116411D8B421EF1CF023EF1CF038EFAE
:103844001CF020EE12F05650D9265750DA22DE50E2
:10385400615DDE506259DE506359DE506459D8A070
:1038640036EF1CF038EF1CF0A7EF1CF0010E616F6F
:10387400000E626F000E636F000E646FA7EF1CF002
:1038840056C03BF057C03CF058C03DF059C03EF024
:103894005AC03FF05BC040F01FEC18F03BC069F029
:1038A4003CC06AF03DC06BF03EC06CF000016C514E
:1038B4006B116A1107E1020E695DD8B064EF1CF068
:1038C40066EF1CF070EF1CF0010E566E000E576E82
:1038D400000E586E000E596EDCEF1DF069290AE1E6
:1038E4006A2908E16B2906E16C29D8A47CEF1CF055
:1038F4007EEF1CF088EF1CF069C056F06AC057F0E8
:103904006BC058F06CC059F0DCEF1DF020EE12F0E3
:103914005650D9265750DA22DE50695DDE506A5976
:10392400DE506B59DE506C59D8B09BEF1CF09DEF04
:103934001CF09FEF1CF07EEF1CF058C061F059C0E2
:1039440062F05AC063F05BC064F061C065F062C0AD
:1039540066F063C067F064C068F0010E6527000E6E
:1039640066236723682320EE12F05650D926575059
:10397400DA22DE50655DDE506659DE506759DE504E
:103984006859D8A0C8EF1CF0CAEF1CF0E9EF1CF08E
:10399400020E656F000E666F000E676F000E686F93
:1039A40064516311621107E1020E615DD8B0DDEF6D
:1039B4001CF0DFEF1CF0E9EF1CF0000E566E000E59
:1039C400576E000E586E000E596EDCEF1DF056C097
:1039D4003BF057C03CF065C03DF066C03EF067C0A8
:1039E4003FF068C040F01FEC18F03BC069F03CC0E9
:1039F4006AF03DC06BF03EC06CF0000169516A1181
:103A04006B116C11D8A409EF1DF00BEF1DF00DEF35
:103A14001DF03CEF1DF069290CE16A290AE16B29CC
:103A240008E16C29D8B419EF1DF01BEF1DF07EEFEF
:103A34001CF069056A116B116C11D8A424EF1DF0F8
:103A440026EF1DF028EF1DF07EEF1CF06151651983
:103A54000DE1625166190AE16351671907E1645186
:103A64006819D8A438EF1DF03AEF1DF0AFEF1CF041
:103A7400DFEF1CF056C03BF057C03CF065C03DF092
:103A840066C03EF067C03FF068C040F0FF0E416E74
:103A9400FF0E426EFF0E436E0F0E446E98EC13F051
:103AA4000001606F6051D8A45AEF1DF05CEF1DF067
:103AB4007FEF1DF0585059105A105B10D8B465EFC1
:103AC4001DF067EF1DF07FEF1DF056C03BF057C0AF
:103AD4003CF058C03DF059C03EF05AC03FF05BC0C6
:103AE40040F065C041F066C042F067C043F068C072
:103AF40044F098EC13F00001606F6051D8A485EF96
:103B04001DF087EF1DF0BEEF1DF020EE0AF05650B9
:103B1400D9265750DA2265C0DEFF66C0DEFF67C0D3
:103B2400DEFF68C0DEFF20EE0EF05650D926575057
:103B3400DA22DE280CE1DE280AE1DE2808E1DE28AC
:103B4400D8B4A7EF1DF0A9EF1DF0D4EF1DF020EEBF
:103B54000EF05650D9265750DA22DE06000EDE5AF1
:103B6400DE5ADE5A20EE05F05650D9265750DA2296
:103B7400000EDB80D4EF1DF06005D8B4C4EF1DF057
:103B8400C6EF1DF0D0EF1DF0010E656F000E666FDD
:103B9400000E676F000E686FD4EF1DF065696669EB
:103BA4006769686965C056F066C057F067C058F029
:103BB40068C059F0120020EE04F05550D926565032
:103BC400DA2257C0DEFF58C0DDFF20EE06F0555064
:103BD400D9265650DA22DECF66F0DECF67F0DECF8C
:103BE40068F0DECF69F0000166056711681169119C
:103BF400D8B4FFEF1DF001EF1EF01AEF1EF055C010
:103C0400D9FF56C0DAFF10EE12F0DE50E126DD5087
:103C1400E222E650665DE6506759E6506859E65080
:103C24006959D8A018EF1EF01AEF1EF01DEF1EF010
:103C3400020E82EF1FF06651671168116911D8A452
:103C440026EF1EF028EF1EF04FEF1EF055C0D9FFEF
:103C540056C0DAFFDECF59F0DDCF5AF059C0D9FF94
:103C64005AC0DAFF030EDE18D8A43BEF1EF03DEF76
:103C74001EF04FEF1EF055C0D9FF56C0DAFF10EE0C
:103C840022F0DE50E126DD50E222E6CF66F0E6CFF8
:103C940067F0E6CF68F0E6CF69F066516711681106
:103CA4006911D8A458EF1EF05AEF1EF085EF1EF0EC
:103CB40055C0D9FF56C0DAFF10EE08F0DE50E126F9
:103CC400DD50E222E650575CE6505858D8A06DEF1C
:103CD4001EF06FEF1EF071EF1EF01AEF1EF055C0CC
:103CE400D9FF56C0DAFF10EE22F0DE50E126DD5097
:103CF400E222E6CF62F0E6CF63F0E6CF64F0E6CFEF
:103D040065F016EF1FF055C0D9FF56C0DAFF10EE6C
:103D140002F0DE50E126DD50E222E750596E5950A0
:103D2400100DF3CF60F0F4CF61F0F1EF1EF055C049
:103D3400D9FF56C0DAFFDECF3BF0DDCF3CF066C0E2
:103D44003DF067C03EF068C03FF069C040F01FEC32
:103D540018F03BC066F03CC067F03DC068F03EC060
:103D640069F0000166290AE1672908E1682906E18A
:103D74006929D8A4C0EF1EF0C2EF1EF0C5EF1EF0F3
:103D8400010E82EF1FF069516811671109E1020EFB
:103D9400665DD8A0D0EF1EF0D2EF1EF01AEF1EF031
:103DA40055C0D9FF56C0DAFF10EE12F0DE50E126FE
:103DB400DD50E222E650665DE6506759E6506859E8
:103DC400E6506959D8A0E9EF1EF0EBEF1EF0EDEFD5
:103DD4001EF01AEF1EF06051575E6151585A60513F
:103DE400575C61515858D8B0FAEF1EF0FCEF1EF042
:103DF40099EF1EF055C0D9FF56C0DAFFDECF0DF0A3
:103E0400DDCF0EF066C00FF067C010F068C011F08F
:103E140069C012F085EC2AF00DC062F00EC063F0A8
:103E24000FC064F010C065F020EE0AF05550D9269A
:103E34005650DA2266C0DEFF67C0DEFF68C0DEFFD0
:103E440069C0DEFF00016251631164116511D8A4D9
:103E54002EEF1FF030EF1FF032EF1FF01AEF1EF0BD
:103E640057C059F058C05AF0040E5B6ED8905A32BD
:103E740059325B2E38EF1FF0595062255C6E5A5050
:103E840063215D6E000E64215E6E000E65215F6E1F
:103E940020EE0EF05550D9265650DA225CC0DEFFD3
:103EA4005DC0DEFF5EC0DEFF5FC0DEFF0F0E571495
:103EB400596E000E58145A6E050ED89059365A365B
:103EC400E82E5FEF1FF055C0D9FF56C0DAFFDECFF2
:103ED4005BF0DDCF5CF059505B245D6E5A505C2082
:103EE4005E6E2E0E5D26000E5E2220EE12F0555000
:103EF400D9265650DA225DC0DEFF5EC0DDFF000E1B
:103F04001200126E1250D8B48AEF1FF08CEF1FF01B
:103F14008FEF1FF0010EEDEF20F00001F7A395EFF6
:103F24001FF097EF1FF09BEF1FF00001F751EDEF2B
:103F340020F0B3EC2EF00A0E1D6EA5EF1FF0FF0E5D
:103F4400E9EC2EF01D061D50D8A4ABEF1FF0ADEF29
:103F54001FF0A1EF1FF0000E1A6E000E0B6E000E84
:103F64000C6E000E0D6E000E0E6E000EFEEC2DF0AB
:103F7400E806D8A4C0EF1FF0C2EF1FF0DDEF20F079
:103F8400AA0E0B6E010E0C6E000E0D6E000E0E6E60
:103F9400080EFEEC2DF0E806D8A4D3EF1FF0D5EF01
:103FA4001FF070EF20F0000E1D6E130E1D24D96E4D
:103FB400DA6A000EDA22FF0EE9EC2EF0DF6E1D2A1B
:103FC400030E1D64E8EF1FF0EAEF1FF0D7EF1FF0B8
:103FD4001504D8A4F0EF1FF0F2EF1FF0DDEF20F08E
:103FE400AA0E1618D8A4F9EF1FF0FBEF1FF0DDEFAF
:103FF40020F0030E1C6EE80E1B6E21EF20F0000E65
:104004000B6E000E0C6E000E0D6E400E0E6EA90EA1
:10401400FEEC2DF00009D8A412EF20F014EF20F0EC
:1040240016EF20F02AEF20F0070E116E7D0EE82E19
:10403400FED7112EFCD700F01B06D8A01C061B507F
:104044001C10D8A428EF20F02AEF20F001EF20F074
:104054001B501C10D8B431EF20F033EF20F0DDEF0B
:1040640020F0000E0B6E000E0C6E000E0D6E000E96
:104074000E6E3A0EFEEC2DF00009D8A444EF20F0A9
:1040840046EF20F0DDEF20F0000E1D6E130E1D2410
:10409400D96EDA6A000EDA22FF0EE9EC2EF0DF6E3A
:1040A4001D2A030E1D6459EF20F05BEF20F048EF4A
:1040B40020F013BC60EF20F062EF20F068EF20F0F6
:1040C400000E186E040E176E6CEF20F0000E186EC2
:1040D4000C0E176E17C01AF0DDEF20F0000E0B6EF9
:1040E400000E0C6E000E0D6E000E0E6EA90EFEEC90
:1040F4002DF0116E020E116082EF20F084EF20F09B
:104104008AEF20F0020E1A6EA90E196E8EEF20F0BF
:10411400010E1A6E010E196E030E1C6EE80E1B6E54
:10412400B4EF20F0000E0B6E000E0C6E000E0D6E40
:10413400000E0E6E1950FEEC2DF00009D8A4A5EF68
:1041440020F0A7EF20F0A9EF20F0BDEF20F0070E3C
:10415400116E7D0EE82EFED7112EFCD700F01B0643
:10416400D8A01C061B501C10D8A4BBEF20F0BDEF38
:1041740020F094EF20F01B501C10D8B4C4EF20F0B2
:10418400C6EF20F0D9EF20F0000E0B6E020E0C6E7D
:10419400000E0D6E000E0E6E100EFEEC2DF00009DA
:1041A400D8B4D7EF20F0D9EF20F0DDEF20F0000EE7
:1041B4001A6EDDEF20F01AC0D6F002EC2FF01A5080
:1041C400D8B4E7EF20F0E9EF20F097EF1FF00001FB
:1041D400F79197EF1FF0120038C01BF039C01CF0A4
:1041E40065EC24F0426E4250D8A4FBEF20F0FDEFC2
:1041F40020F0DFEF21F038C0D9FF39C0DAFF030E19
:10420400DE18D8A408EF21F00AEF21F0C6EF21F060
:1042140020EE05F03850D9263950DA22DE04D8A42D
:1042240016EF21F018EF21F0C6EF21F02E0E3824FE
:10423400016E000E3920026E000E046E000E036E35
:10424400020E066E000E056E6DEC2EF022EE2CF0C2
:104254003850D9263950DA22550EDE6EAA0EDD6E9C
:1042640020EE2EF03850D9263950DA22520EDE6E66
:10427400520EDE6E610EDE6E410EDD6E22EE12F027
:104284003850D9263950DA22720EDE6E720EDE6E86
:10429400410EDE6E610EDD6E20EE0EF03850D92632
:1042A4003950DA2212EE16F03850E1263950E22263
:1042B400DECFE6FFDECFE6FFDECFE6FFDECFE6FFB2
:1042C40020EE0AF03850D9263950DA2212EE1AF0CC
:1042D4003850E1263950E222DECFE6FFDECFE6FF9A
:1042E400DECFE6FFDECFE6FF20EE1AF03850D92607
:1042F4003950DA22DECF3AF0DECF3BF0DECF3CF0AD
:10430400DECF3DF0010E3A243E6E000E3B203F6EA0
:10431400000E3C20406E000E3D20416E20EE2AF03F
:104324003850D9263950DA223EC0DEFF3FC0DEFFC6
:1043340040C0DEFF41C0DEFF2E0E3824116E000E99
:104344003920126E20EE2AF03850D9263950DA225C
:10435400DECF13F0DECF14F0DECF15F0DECF16F093
:10436400000E186E010E176E20EE01F03850D9269B
:104374003950DA22DF5090EC23F020EE05F038506B
:10438400D9263950DA22DF6A000E116E000E126E41
:10439400000E136E20EE01F03850D9263950DA227F
:1043A400DF5030EC0EF00009D8B4DBEF21F0DDEF84
:1043B40021F0DFEF21F0010E426E4250120089C05D
:1043C400F6FF8AC0F7FF0800F5502F0AD8B4EDEFC6
:1043D40021F0EFEF21F0FDEF21F089C0F6FF8AC054
:1043E400F7FF0800F5505C0AD8A4FBEF21F0FDEFBD
:1043F40021F000EF22F00001894B8A2B000120EE0E
:1044040006F08751D9268851DA22DE6ADE6ADE6A2E
:10441400DD6A89C0F6FF8AC0F7FF200E0800F56048
:1044240016EF22F018EF22F02EEF22F087C055F09D
:1044340088C056F0000E586E000E576EDDEC1DF06D
:1044440000018E6F20EE12F08751D9268851DA22AE
:10445400DE6ADD6AB7EF22F087C009F088C00AF08F
:10446400890E0B6E000E0C6E18EC1AF000018E6FA4
:104474008E51D8B440EF22F042EF22F044EF22F004
:10448400B7EF22F087C081F088C082F012EC27F0E9
:1044940000018E6F20EE14F08751D9268851DA225C
:1044A40010EE0BF0DE50E126DD50E222E7508D6F76
:1044B4008E51D8B460EF22F062EF22F076EF22F052
:1044C400040E8E19D8A469EF22F06BEF22F0B7EF37
:1044D40022F08DB570EF22F072EF22F0B7EF22F0E8
:1044E400050E8E6FB7EF22F08DA57BEF22F07DEFE6
:1044F40022F07FEF22F0B7EF22F020EE12F0875186
:10450400D9268851DA22DECF8BF0DDCF8CF020EE75
:104514000BF08B51D9268C51DA22DFB894EF22F0BC
:1045240096EF22F098EF22F072EF22F087C0D9FFC5
:1045340088C0DAFFDECF01F0DDCF02F08BC003F0DC
:104544008CC004F0EAEC2CF0000120EE06F0875158
:10455400D9268851DA2201C0DEFF02C0DEFF03C083
:10456400DEFF04C0DEFF2EEF22F08E5112005B50FE
:104574005A10591009E1020E585CD8A0C4EF22F079
:10458400C6EF22F0DBEF22F020EE12F05650D926CF
:104594005750DA22DE50585CDE505958DE505A58D3
:1045A400DE505B58D8A0D9EF22F0DBEF22F0E0EF29
:1045B40022F0020E0001606F8EEF23F0000E000166
:1045C400606F79EF23F056C03BF057C03CF058C001
:1045D4003DF059C03EF05AC03FF05BC040F01FECC4
:1045E40018F03BC061F03CC062F03DC063F03EC0D7
:1045F40064F000016151621163116411D8A405EFE4
:1046040023F007EF23F009EF23F08EEF23F0610589
:10461400621163116411D8A412EF23F014EF23F094
:1046240016EF23F0DBEF22F061290AE1622908E1A9
:10463400632906E16429D8A422EF23F024EF23F0B0
:1046440028EF23F0010E606F8EEF23F056C03BF08D
:1046540057C03CF058C03DF059C03EF05AC03FF03E
:104664005BC040F0000E416E000E426E000E436EC1
:10467400000E446E98EC13F00001606F6051D8B4E2
:1046840046EF23F048EF23F04AEF23F08EEF23F0B8
:1046940020EE0EF05650D9265750DA22DE280CE1CF
:1046A400DE280AE1DE2808E1DE28D8B45CEF23F036
:1046B4005EEF23F071EF23F020EE0EF05650D92672
:1046C4005750DA22DE2A000EDE22DE22DE2220EE1F
:1046D40005F05650D9265750DA22000EDB8061C00F
:1046E40058F062C059F063C05AF064C05BF020EE29
:1046F40012F05650D9265750DA22DE50585CDE505C
:104704005958DE505A58DE505B58D8A08CEF23F02D
:104714008EEF23F0E5EF22F0605112001A6E1A506A
:10472400D8A497EF23F099EF23F0A2EF23F01750CA
:104734001810D8A4A0EF23F0A2EF23F0A5EF23F0E4
:10474400040E64EF24F00001F7A1ABEF23F0ADEF0A
:1047540023F0B0EF23F0030E64EF24F0F7A5B5EFD8
:1047640023F0B7EF23F0BAEF23F0020E64EF24F046
:10477400D6B7BFEF23F0C1EF23F0CAEF23F0090E41
:10478400D8901336143615361636E82EC2EF23F0B9
:1047940017041810D8A4D1EF23F0D3EF23F0FCEFC3
:1047A40023F013C00BF014C00CF015C00DF016C0AC
:1047B4000EF0180EFEEC2DF00009D8A4E4EF23F05F
:1047C400E6EF23F057EF24F011C004F012C005F017
:1047D400FE0E066EABEC2BF00009D8B4F4EF23F018
:1047E400F6EF23F057EF24F0000E186E000E176E4C
:1047F40057EF24F0D6C019F0060E1916D8B405EFF9
:1048040024F007EF24F010EF24F017C00BF018C0C9
:104814000CF00D6A0E6A970EFEEC2DF013C00BF02F
:1048240014C00CF015C00DF016C00EF0190EFEECFD
:104834002DF00009D8A421EF24F023EF24F057EF42
:1048440024F011C004F012C005F0FC0E066EABECAF
:104854002BF00009D8A431EF24F033EF24F035EF26
:1048640024F043EF24F0020E12261706D8A01806EF
:1048740017501810D8A441EF24F043EF24F023EF8D
:1048840024F0000E046E000E056EFD0E066EABECF9
:104894002BF00009D8A451EF24F053EF24F057EF84
:1048A40024F0000E186E010E176E02EC2FF0175054
:1048B4001810D8A460EF24F063EF24F0010E64EF25
:1048C40024F0000E1200000E296E20EE04F01B509E
:1048D400D9261C50DA22DF50D8B473EF24F075EFD8
:1048E40024F026EF25F020EE2AF01B50D9261C5088
:1048F400DA22DECF2CF0DECF2DF0DECF2EF0DECFAD
:104904002FF02E0E1B24116E000E1C20126E2CC0D4
:1049140013F02DC014F02EC015F02FC016F0000EA9
:10492400186E010E176E20EE01F01B50D9261C5094
:10493400DA22DF5090EC23F00009D8B4A4EF24F07D
:10494400A6EF24F0AAEF24F0010E296E26EF25F03D
:1049540020EE04F01B50D9261C50DA22DF6A20EE28
:1049640016F01B50D9261C50DA2210EE1EF01B50F4
:10497400E1261C50E222E6CF21F0E6CF22F0E6CF7A
:1049840023F0E6CF24F021502C5C256E22502D58C4
:10499400266E23502E58276E24502F58286EDE5032
:1049A400255CDE502658DE502758DE502858D8B0F3
:1049B400DEEF24F0E0EF24F026EF25F020EE03F004
:1049C4001B50D9261C50DA22DF501D6E1D502A6E52
:1049D4002B6A2B5007E1020E2A5CD8B0F4EF24F0C6
:1049E400F6EF24F0F8EF24F026EF25F020EE16F091
:1049F4001B50D9261C50DA22DE502C26DE502D22E4
:104A0400DE502E22DD502F222E0E1B24116E000E9E
:104A14001C20126E2CC013F02DC014F02EC015F003
:104A24002FC016F0000E186E010E176E20EE01F066
:104A34001B50D9261C50DA22DF5090EC23F02A06B2
:104A4400D8A02B06EBEF24F02950120043C002F04B
:104A540044C003F021EC2AF0456E4550D8A435EF4C
:104A640025F037EF25F0D4EF25F020EE04F0435085
:104A7400D9264450DA22DFAA42EF25F044EF25F08C
:104A8400D4EF25F043C0D9FF44C0DAFFDECF30F0C5
:104A9400DDCF31F020EE1AF04350D9264450DA220B
:104AA400DECF32F0DECF33F0DECF34F0DECF35F0C0
:104AB400E8EC2AF0456E4550D8A463EF25F065EF85
:104AC40025F0D4EF25F020EE1EF04350D9264450B3
:104AD400DA22DECF46F0DDCF47F020EE0BF0465071
:104AE400D9264750DA22000EDB8A20EE0AF0435022
:104AF400D9264450DA2210EE1CF04650E1264750E5
:104B0400E222DECFE6FFDECFE6FFDECFE6FFDECF3A
:104B1400E6FF46C001F047C002F020EE0EF043501D
:104B2400D9264450DA22DECF03F0DECF04F0DECF04
:104B340005F0DECF06F089EC2EF020EE16F046509C
:104B4400D9264750DA22000EDE6E000EDE6E210EEC
:104B5400DE6E460EDD6E20EE12F04650D92647502A
:104B6400DA22DE6ADD6A20EE04F04350D92644508E
:104B7400DA22DF0EDF1643C0D9FF44C0DAFF10EE9D
:104B840004F0DE50E126DD50E222010EE76E43C060
:104B9400D9FF44C0DAFFDECF38F0DDCF39F0EEECD8
:104BA40020F0456E4550120081C055F082C056F089
:104BB400000E586E000E576EDDEC1DF000018A6F7A
:104BC4008A51D8A4E8EF25F0EAEF25F067EF26F044
:104BD400000E896F000E886F81C0D9FF82C0DAFF92
:104BE400DECF30F0DDCF31F020EE0EF08151D9264A
:104BF4008251DA22DECF32F0DECF33F0DECF34F072
:104C0400DECF35F0E8EC2AF000018A6F8A51D8B47F
:104C14000EEF26F010EF26F012EF26F067EF26F0E5
:104C240020EE12F08151D9268251DA22DECF85F0AE
:104C3400DDCF86F085C0D9FF86C0DAFFE50EDE1829
:104C4400D8B427EF26F029EF26F03FEF26F020EE28
:104C540012F08151D9268251DA22DECF85F0DDCFE0
:104C640086F085C0D9FF86C0DAFFDF50D8A43DEFB7
:104C740026F03FEF26F04FEF26F0884B892B835127
:104C8400881907E184518919D8A44BEF26F04DEF18
:104C940026F053EF26F067EF26F0000E896F000E22
:104CA400886F81C06DF082C06EF0000E706F010ECF
:104CB4006F6F32EC11F000018A6F8A51D8B465EF3E
:104CC40026F067EF26F0EEEF25F0040E8A19D8A43B
:104CD4006EEF26F070EF26F072EF26F0070E8A6F63
:104CE4008A511200196E1950D8A47BEF26F07DEF7B
:104CF40026F086EF26F017501810D8A484EF26F07B
:104D040086EF26F089EF26F0040E11EF27F000015C
:104D1400F7A18FEF26F091EF26F094EF26F0030E23
:104D240011EF27F0D6B799EF26F09BEF26F0A4EF0A
:104D340026F0090ED8901336143615361636E82E9A
:104D44009CEF26F0185007E1020E175CD8B0ADEFC7
:104D540026F0AFEF26F0B5EF26F0000E1B6E110E15
:104D64001A6EB9EF26F0000E1B6E120E1A6E1AC0E0
:104D74001CF013C00BF014C00CF015C00DF016C0DD
:104D84000EF01C50FEEC2DF00009D8A4CCEF26F058
:104D9400CEEF26F004EF27F011C002F012C003F0AA
:104DA400020E056E000E046E52EC2CF00009D8A41D
:104DB400DEEF26F0E0EF26F0E2EF26F0F0EF26F04B
:104DC400020E12261706D8A0180617501810D8A4D9
:104DD400EEEF26F0F0EF26F0CEEF26F0120E1C18C0
:104DE400D8A4F7EF26F0F9EF26F004EF27F0000E31
:104DF4000B6E000E0C6E000E0D6E000E0E6E0C0E81
:104E0400FEEC2DF002EC2FF017501810D8A40DEF83
:104E140027F010EF27F0010E11EF27F0000E12001B
:104E240081C055F082C056F0000E586E000E576EC9
:104E3400DDEC1DF00001866F8651D8B424EF27F015
:104E440026EF27F02AEF27F000018651ADEF27F077
:104E540081C0D9FF82C0DAFFDECF30F0DDCF31F080
:104E640020EE0EF08151D9268251DA22DECF32F0C3
:104E7400DECF33F0DECF34F0DECF35F0E8EC2AF0CD
:104E84000001866F8651D8B44AEF27F04CEF27F023
:104E94004EEF27F026EF27F020EE12F08151D926AD
:104EA4008251DA22DECF84F0DDCF85F084C0D9FFD1
:104EB40085C0DAFFDF50836F8351D8A464EF27F0F5
:104EC40066EF27F06AEF27F0040E866F26EF27F0CF
:104ED40020EE0BF08451D9268551DA22DFB675EF26
:104EE40027F077EF27F096EF27F084C001F085C014
:104EF40002F020EE14F08151D9268251DA22DECF5D
:104F040003F0DDCF04F0000E066E0B0E056E2EECE2
:104F14002DF001500210D8A492EF27F094EF27F05F
:104F240096EF27F026EF27F081C06DF082C06EF077
:104F3400000E0001706F000E6F6F32EC11F0000173
:104F4400866F8651D8B4A9EF27F0ABEF27F02AEF8C
:104F540027F026EF27F012000768086801C0D9FF80
:104F640002C0DAFFDE50DE10D8B4BBEF27F0BDEF8D
:104F740027F037EF28F001C0D9FF02C0DAFFDECFF7
:104F84000BF0DDCF0CF0C9EF27F00B4A0C2A0BC055
:104F9400F6FF0CC0F7FF200E0800F564D4EF27F0ED
:104FA400D6EF27F0E4EF27F00BC0F6FF0CC0F7FFB5
:104FB4000800F5503A0AD8A4E2EF27F0E4EF27F00E
:104FC400C7EF27F00BC0F6FF0CC0F7FF0800F55041
:104FD4003A0AD8A4F0EF27F0F2EF27F03DEF28F0DB
:104FE40001C0D9FF02C0DAFFDECF05F0DDCF06F045
:104FF40005C0F6FF06C0F7FF0800F5CF03F0D00E9A
:105004000324096E0A6AFF0E0A22054A062A0A5078
:1050140007E10A0E095CD8B012EF28F014EF28F06B
:1050240037EF28F00B50051807E10C500618D8A4E8
:105034001EEF28F020EF28F037EF28F009500A106F
:10504400D8A427EF28F029EF28F037EF28F009C07B
:1050540007F00AC008F00B4A0C2A01C0D9FF02C0AD
:10506400DAFF0BC0DEFF0CC0DDFF07C001F008C093
:1050740002F043EF28F0000E086E000E076E37EFC3
:1050840028F0120020EE04F03B50D9263C50DA22DE
:10509400DF6A20EE2AF03B50D9263C50DA22FF0E7C
:1050A400DE6EFF0EDE6EFF0EDE6EFF0EDD6E3BC0AB
:1050B40030F03CC031F03DC032F03EC033F03FC070
:1050C40034F040C035F0E8EC2AF00009D8B46DEFB4
:1050D40028F06FEF28F072EF28F0030ED1EF28F0DC
:1050E40022EE2CF03B50D9263C50DA22550EDE1825
:1050F40009E1AA0EDE18D8B482EF28F084EF28F074
:1051040087EF28F0020ED1EF28F020EE64F03B5038
:10511400D9263C50DA22FF0EDE14416EFF0EDE1457
:10512400426EFF0EDE14436E000EDE14446E460E15
:1051340041180BE1410E421808E1540E4318441083
:10514400D8A4A7EF28F0A9EF28F0ACEF28F0000EC0
:10515400D1EF28F020EE80F03B50D9263C50DA22E3
:10516400FF0EDE14416EFF0EDE14426EFF0EDE14DF
:10517400436E000EDE14446E460E41180BE1410EE0
:10518400421808E1540E43184410D8A4CCEF28F078
:10519400CEEF28F0D0EF28F0A9EF28F0010E12008E
:1051A4008BC081F08CC082F0000E0001846F010E70
:1051B400836FD6EC25F000018D6F8D51D8A4E5EFF7
:1051C40028F0E7EF28F044EF29F08BC0D9FF8CC01A
:1051D400DAFFDECF30F0DDCF31F020EE0EF08B5170
:1051E400D9268C51DA22DECF32F0DECF33F0DECF97
:1051F40034F0DECF35F0E8EC2AF000018D6F8D51EC
:10520400D8A407EF29F009EF29F044EF29F020EEA4
:1052140012F08B51D9268C51DA22DECF01F0DDCF8A
:1052240002F0000E046E000E036E000E066E200ED9
:10523400056E6DEC2EF0000120EE12F08B51D92694
:105244008C51DA22DECF01F0DDCF02F020EE14F033
:105254008B51D9268C51DA22DECF03F0DDCF04F056
:10526400000E066E0B0E056EB8EC29F08BC0D9FF4C
:105274008CC0DAFF10EE04F0DE50E126DD50E222AD
:10528400010EE76E00018D51120054C05AF055C052
:105294005BF05A0E016E000E026EAEEC27F001C0F8
:1052A4005CF002C05DF05DBE5CEF29F05AEF29F0BE
:1052B4005FEF29F00B0EB7EF29F0D8905C34D96E6C
:1052C4005D34DA6ED40ED926000EDA22DECF58F021
:1052D400DDCF59F058505910D8B473EF29F075EF59
:1052E40029F07AEF29F058C0D9FF59C0DAFFDF6AF4
:1052F40052505310D8B481EF29F083EF29F088EF8E
:1053040029F052C0D9FF53C0DAFFDF6AD8905C3469
:10531400D96E5D34DA6ED40ED926000EDA2252C06C
:10532400DEFF53C0DDFF52505310D8B49CEF29F078
:105334009EEF29F0A6EF29F05604D8B4A4EF29F083
:10534400A6EF29F0A9EF29F0000EB7EF29F0520ECD
:10535400456E000E466E540E476E000E486E000EEB
:10536400496E1AEC04F0576E5750120001C009F050
:1053740002C00AF003C00BF004C00CF0EDEF29F0FA
:105384000BC0F6FF0CC0F7FFF86A070EF76407D0EE
:105394000900F5CF07F00900F5CF08F008D0F6CFE3
:1053A400E9FFF7CFEAFFEECF07F0EECF08F009C030
:1053B400D9FF0AC0DAFF07C0DEFF08C0DDFF020E16
:1053C4000926000E0A22020E0B26000E0C22020EE3
:1053D400055E000E065A065007E1020E055CD8B0C1
:1053E400F6EF29F0F8EF29F0C2EF29F013EF2AF0D5
:1053F4000BC0F6FF0CC0F7FFF86A09C0D9FF0AC05A
:10540400DAFF070EF76403D00800F55005D0F6CF95
:10541400E9FFF7CFEAFFEF50DF6E0B4A0C2A094A87
:105424000A2A0506D8A00606052806E10628D8A4F7
:105434001EEF2AF020EF2AF0FAEF29F0120002C042
:1054440008F003C009F008500910D8B42CEF2AF072
:105454002EEF2AF080EF2AF008C0D9FF09C0DAFF46
:10546400DE50DE10D8B439EF2AF03BEF2AF080EF9B
:105474002AF008C0D9FF09C0DAFFDECF04F0DDCF7F
:1054840005F004C0D9FF05C0DAFFDF50D8B44DEFF2
:105494002AF04FEF2AF080EF2AF020EE02F00850B5
:1054A400D9260950DA2208C0E1FF09C0E2FF00EE64
:1054B40006F0E650E926E550EA22DE50EE1807E150
:1054C400DE50EE18D8A469EF2AF06BEF2AF080EFD3
:1054D4002AF008C0D9FF09C0DAFF10EE01F0DE504F
:1054E400E126DD50E222E750DAEC2EF0046E04A04F
:1054F4007EEF2AF080EF2AF083EF2AF0090E84EF82
:105504002AF0000E1200020E0F5E000E105A115AFD
:10551400125A20EE12F00D50D9260E50DA22FE0E49
:10552400DE24136EFF0EDE20146EFF0EDE20156ED9
:10553400FF0EDE20166E13500F5C145010581550D9
:10554400115816501258D8A0AAEF2AF0ACEF2AF03E
:10555400B6EF2AF0000E0D6E000E0E6E000E0F6EEA
:10556400000E106EE7EF2AF020EE26F00D50D9263B
:105574000E50DA22DECF13F0DECF14F0DECF15F0BA
:10558400DECF16F020EE02F00D50D9260E50DA22AE
:10559400DF50176E1750016E026A036A046A0FC067
:1055A40005F010C006F011C007F012C008F06BEC53
:1055B4002DF0135001240D6E145002200E6E155060
:1055C40003200F6E16500420106E1200000E3A6E67
:1055D40020EE2AF03050D9263150DA223250DE182B
:1055E4000FE13350DE180CE13450DE1809E1355078
:1055F400DE18D8B400EF2BF002EF2BF048EF2BF0BD
:1056040030C01BF031C01CF065EC24F03A6E3A5007
:10561400D8A40FEF2BF011EF2BF048EF2BF02E0E48
:105624003024116E000E3120126E32C013F033C0DC
:1056340014F034C015F035C016F0000E186E010ECB
:10564400176E20EE01F03050D9263150DA22DF50A7
:1056540074EC26F00009D8B432EF2BF034EF2BF0C1
:105664003AEF2BF03268336834683568010E3A6ECD
:1056740020EE2AF03050D9263150DA2232C0DEFF33
:1056840033C0DEFF34C0DEFF35C0DEFF3A50120007
:105694000A6E0C0E0A18D8B452EF2BF054EF2BF00C
:1056A40063EF2BF002EC2FF09EEC2EF00009D8A44F
:1056B4005EEF2BF060EF2BF063EF2BF0FF0EAAEF01
:1056C4002BF00A504009F6EC2EF00750F6EC2EF0C1
:1056D4000650F6EC2EF00550F6EC2EF00450F6ECE5
:1056E4002EF0010E096E0A50D8A47BEF2BF07DEF4B
:1056F4002BF07FEF2BF0950E096E080E0A18D8A434
:1057040086EF2BF088EF2BF08AEF2BF0870E096ED3
:105714000950F6EC2EF00C0E0A18D8A494EF2BF0D6
:1057240096EF2BF099EF2BF0FF0EE9EC2EF00A0E1A
:10573400096EFF0EE9EC2EF0086E08AEA4EF2BF014
:10574400A6EF2BF0A9EF2BF0092E9BEF2BF00850BE
:105754001200CFEC2DF00009D8A4B3EF2BF0B5EF75
:105764002BF0B8EF2BF0000EFFEF2BF00650F6EC09
:105774002EF0FD0E0618D8B4C2EF2BF0C4EF2BF0B8
:10578400FEEF2BF0020E086E000E076E04C0F6FF4B
:1057940005C0F7FFF86A070EF76403D00800F55058
:1057A40005D0F6CFE9FFF7CFEAFFEF50F6EC2EF085
:1057B400044A052A0706D8A0080607500810D8A4EA
:1057C400E6EF2BF0E8EF2BF0C8EF2BF0FF0EE9EC3F
:1057D4002EF0FF0EE9EC2EF0FF0EE9EC2EF0096E30
:1057E40009501F0B050AD8B4FAEF2BF0FCEF2BF08D
:1057F400FEEF2BF0B5EF2BF0010E1200000E096E38
:10580400000E0A6E000E0B6E000E0C6E0550061094
:1058140007100810D8B411EF2CF013EF2CF049EF57
:105824002CF0010E0D6E1DEF2CF0D89005360636C7
:10583400073608360D2A08AE22EF2CF024EF2CF0A0
:1058440017EF2CF0D89009360A360B360C36055073
:10585400015C065002580750035808500458D8A059
:1058640036EF2CF038EF2CF041EF2CF00550015EB0
:105874000650025A0750035A0850045A0980D89017
:1058840008320732063205320D2E24EF2CF009C0FF
:1058940001F00AC002F00BC003F00CC004F01200C7
:1058A400070E076ED00E066E6DEF2CF0FF0EE9ECBE
:1058B4002EF0086E0828D8B462EF2CF064EF2CF0B8
:1058C40066EF2CF076EF2CF0A60EE82EFED700D073
:1058D4000606D8A0070606500710D8A474EF2CF0CB
:1058E40076EF2CF058EF2CF0FE0E0818D8B47DEFAC
:1058F4002CF07FEF2CF082EF2CF0000E9FEF2CF0B9
:10590400FF0EE9EC2EF002C0D9FF03C0DAFFDF6E10
:10591400024A032A0406D8A0050604500510D8A498
:1059240096EF2CF098EF2CF082EF2CF0FF0EE9ECC0
:105934002EF0FF0EE9EC2EF0010E1200B3EC2EF067
:10594400000E956ED20E526E050E536E190E546EE5
:10595400080E556E010E566E47EC29F00009D8A4C6
:10596400B6EF2CF0B8EF2CF0E6EF2CF0D70E0001D8
:105974009A6F000E9B6F290E9C6F080E9D6F120E7E
:105984009E6FEAEC15F00009D8A4CBEF2CF0CDEF14
:105994002CF0E6EF2CF0D70E00016D6F000E6E6F49
:1059A400010E6F6F080E706F000E726F180E716F1C
:1059B400D00E736F000E746FE7EC09F0D70E486ECB
:1059C400000E496E2AEC2EF0E6EF2CF000EF00F00A
:1059D4001A0E0324D96E000E0420DA6EDECF05F011
:1059E400DDCF06F005C00BF006C00CF00D6A0E6AA0
:1059F40001C0D9FF02C0DAFF030EDE18D8A405EFF8
:105A04002DF007EF2DF025EF2DF0140E0324D96EA1
:105A1400000E0420DA6EDECF05F0DDCF06F005506F
:105A2400076E0650086E096A0A6A08C00AF007C0C1
:105A340009F0086A076A07500B1208500C12095043
:105A44000D120A500E120BC001F00CC002F00DC072
:105A540003F00EC004F0120001C009F002C00AF005
:105A640003C00BF004C00CF0000E0E6E000E0D6EA1
:105A74000506D8A00606052808E10628D8B445EF8F
:105A84002DF047EF2DF066EF2DF009C0D9FF0AC0C5
:105A9400DAFF094A0A2ADF50076E0BC0D9FF0CC08F
:105AA400DAFF0B4A0C2ADF50086E0850075C0D6EB3
:105AB4000E6AD8A00E060D500E10D8B464EF2DF067
:105AC40066EF2DF03AEF2DF00DC001F00EC002F09C
:105AD4001200000E096E000E0A6E000E0B6E000E10
:105AE4000C6E01A078EF2DF07AEF2DF082EF2DF0FF
:105AF4000550092606500A2207500B2208500C2292
:105B0400D8900536063607360836D8900432033264
:105B1400023201320150021003100410D8A495EF90
:105B24002DF097EF2DF073EF2DF009C001F00AC0AE
:105B340002F00BC003F00CC004F01200A4EF2DF02F
:105B4400014A022A01C0F6FF02C0F7FF0800F5501F
:105B54000009D8B4B0EF2DF0B2EF2DF0C6EF2DF060
:105B640001C0F6FF02C0F7FF0800F550056E066A93
:105B74000350051807E104500618D8A4C4EF2DF00B
:105B8400C6EF2DF0A2EF2DF001C0F6FF02C0F7FF23
:105B94000800F550016E026A1200130E036E880E9F
:105BA400026EE9EF2DF0FF0EE9EC2EF0FF0AD8A407
:105BB400DEEF2DF0E0EF2DF0E2EF2DF0F2EF2DF01F
:105BC400A60EE82EFED700D00206D8A00306025087
:105BD4000310D8A4F0EF2DF0F2EF2DF0D5EF2DF057
:105BE40002500310D8A4F9EF2DF0FCEF2DF0010EB4
:105BF400FDEF2DF0000E12000F6E0FAE04EF2EF02D
:105C040006EF2EF01EEF2EF00F9E000E046E000E17
:105C1400056E000E066E000E076E370E4AEC2BF072
:105C2400106E010E106419EF2EF01BEF2EF01EEF14
:105C34002EF0105029EF2EF00BC004F00CC005F02C
:105C44000DC006F00EC007F00F504AEC2BF0120006
:105C540048C043F049C044F028EC25F04A6E4A504D
:105C6400D8A437EF2EF039EF2EF04EEF2EF048C0C7
:105C740002F049C003F021EC2AF04A6E4A50D8A43D
:105C840046EF2EF048EF2EF04EEF2EF048C0D9FF2D
:105C940049C0DAFFDE6ADD6A12000E0EF66E5E0E91
:105CA400F76E000EF86E0900F5CFF7F005EED2F0AE
:105CB40012EE2EF0EE6AE550E150FCE1E250FAE11A
:105CC40000EED2F0250EEE6AE806FDE1000EF86E55
:105CD4000001A0EF2CF001C007F002C008F07BEF38
:105CE4002EF007C0D9FF08C0DAFF03C0DFFF074A60
:105CF400082A0506D8A00606052806E10628D8A421
:105D040086EF2EF088EF2EF073EF2EF0120020EEC7
:105D14001AF00150D9260250DA2203C0DEFF04C073
:105D2400DDFF20EE14F00150D9260250DA2205C01E
:105D3400DEFF06C0DDFF1200899AFF0EE9EC2EF0AB
:105D4400CFEC2DF00009D8B4AAEF2EF0ACEF2EF072
:105D5400AFEF2EF0010EB2EF2EF002EC2FF0000E9A
:105D640012000F0EC11293809392929A949E898A84
:105D74009E9EC790C78CC79EC650F00B0209C66E84
:105D8400C698C68AC69CC69E120001500302F3CF71
:105D940005F0F4CF06F001500402F3500626025039
:105DA4000302F350062605C001F006C002F01200FB
:105DB400016E0150D8B4E1EF2EF0E3EF2EF0E6EFE0
:105DC4002EF0010EE8EF2EF00001F7511200016EE3
:105DD40001C0C9FF9EA6F1EF2EF0F3EF2EF0ECEF19
:105DE4002EF09E96C9501200016E01C0C9FF9EA6F6
:105DF400FEEF2EF000EF2FF0F9EF2EF09E9612003A
:0B5E0400898AFF0EE9EC2EF01200016D
:020000040020DA
:08000000FFFFFFFFFFFFFFFF00
:020000040030CA
:0E000000000C181EFF8185FF0FC00FE00F409F
:00000001FF
